:100000000C9434000C9451000C9451000C94510049
:100010000C9451000C9451000C9451000C9451001C
:100020000C9451000C9451000C9451000C9451000C
:100030000C9451000C9451000C9462000C945100EB
:100040000C9451000C9451000C9451000C945100EC
:100050000C9451000C9451000C9451000C945100DC
:100060000C9451000C94510011241FBECFEFD8E026
:10007000DEBFCDBF11E0A0E0B1E0E2E4F1E002C0FC
:1000800005900D92A230B107D9F721E0A2E0B1E0CE
:1000900001C01D92A330B207E1F70E9493000C94B7
:1000A0009F000C94000084B5826084BD85B5856096
:1000B00085BD8FE087BDEEE6F0E0808182608083C1
:1000C000789408951F920F920FB60F9211242F93D8
:1000D0008F939F9393B181E0292F217090FF80E04F
:1000E00090910001913061F421110AC090910201B8
:1000F0009A3031F425B190E2922795B9109202011D
:10010000909102019A3028F4909102019F5F9093A0
:100110000201809300019F918F912F910F900FBE4C
:100120000F901F90189584B1806284B984B18E7F3E
:1001300084B985B1816085B90E945300FFCFF894DE
:02014000FFCFEF
:020142000100BA
:00000001FF
