S0130000505553485F427574746F6E2E73726563F6
S11300000C9434000C943E000C943E000C943E007E
S11300100C943E000C943E000C943E000C943E0064
S11300200C943E000C943E000C943E000C943E0054
S11300300C943E000C943E000C943E000C943E0044
S11300400C943E000C943E000C943E000C943E0034
S11300500C943E000C943E000C943E000C943E0024
S11300600C943E000C943E0011241FBECFEFD8E048
S1130070DEBFCDBF0E9440000C9465000C940000CC
S113008084B1806284B984B18E7F84B985B1816082
S113009085B941E001C0482F93B181E0292F217037
S11300A030E090FF80E04130B1F7232BA1F745B158
S11300B090E2942795B94FEF53EC99E041505040AA
S11100C09040E1F700C00000E6CFF894FFCFB7
S9030000FC
